:020000040800F2
:100000000000022089010008791300087D13000810
:100010008113000885130008891300080000000000
:100020000000000000000000000000008D13000828
:1000300091130008000000009513000899130008B0
:10004000D5010008D5010008D5010008D501000838
:10005000D5010008D5010008B5180008D501000831
:10006000D5010008D5010008D5010008A50C00083D
:10007000D5010008D5010008D5010008D501000808
:10008000D5010008D5010008D5010008D5010008F8
:10009000D5010008D5010008D5010008D5010008E8
:1000A000D5010008D5010008D5010008D5010008D8
:1000B000D5010008D5010008B9180008D5010008CD
:1000C000D5010008D5010008D5010008D5010008B8
:1000D000D5010008D5010008D5010008D5010008A8
:1000E000D5010008D5010008D5010008D501000898
:1000F000D5010008D5010008D5010008A10C0008B1
:10010000D5010008D5010008D5010008A90C000898
:10011000D5010008D5010008F1160008D501000836
:10012000D5010008D5010008D5010008D501000857
:10013000D5010008D5010008D5010008D501000847
:10014000D5010008D5010008D5010008D501000837
:10015000D5010008D5010008D5010008D501000827
:10016000D5010008D5010008D5010008D501000817
:10017000D5010008D5010008D5010008D501000807
:10018000D5010008D5010008002100F004B80C4B8F
:100190005B58435004310B480B4B42189A42FFF412
:1001A000F6AF0A4A00F003B8002342F8043B084BBC
:1001B0009A42FFF4F9AF02F0A5FE00F00DF8704787
:1001C000E0E10008000000208800002088000020F6
:1001D000A8E00120FFF7FEBF2DE9F0430120A1B008
:1001E00000F000FB002000F0FDFA022000F0FAFA17
:1001F000032000F0F7FA0020014600F039FB01214E
:10020000402002F07BFB012002F0BEFBCD4BCE492B
:10021000DFF860834CF23E32C3F2AE7200201A6007
:10022000086001F035FE07200121C0F2400002F015
:1002300057FB42F24C0601214FF4807002F07AFB2A
:10024000C4F201064FF480624FF4006346F210409E
:10025000012400250827C4F2020011A91296179262
:1002600018934FF480724FF480334FF400561B9371
:100270001A92119514951597169519961C951D941B
:100280001E951F95CDF84C8002F002F846F2104002
:100290002146C4F2020002F03FF8284603264FF040
:1002A0000E09C4F2020001A98DF808608DF80B5008
:1002B000CDF8049002F0D4F84FF48060C4F202004C
:1002C00003A903968DF810608DF8135002F0C8F85A
:1002D0004FF40060162205A9C4F2020005928DF8C1
:1002E00018608DF81B5002F0BBF84FF4706107A83E
:1002F0000795089509950A9101F000FE4FF400500A
:100300004FF08073C4F201000BA90B938DF83040BD
:100310008DF831400D950F958DF840700E9501F0D8
:10032000C5FD4FF40050214622462346C4F2010089
:1003300001F006FE02214FF400500A462346C4F2A3
:10034000010001F0FDFD4FF40050314632462346D6
:10035000C4F2010001F0F4FD4FF4005039460422CC
:100360002346C4F2010001F0EBFD4FF400500921D7
:1003700005222346C4F2010001F0E2FD4FF40050D3
:100380000B2106222346C4F2010001F0D9FD4FF4EF
:1003900000500C2107222346C4F2010001F0D0FDD9
:1003A0004FF4005023463A46C4F20100494601F09A
:1003B000C7FD4FF400502146C4F2010001F028FEB1
:1003C0004FF400502146C4F2010001F017FE4FF433
:1003D00000502146C4F2010001F0A8FD4FF4005086
:1003E0002146C4F2010001F0FFFD4FF40050C4F2B9
:1003F000010001F0F3FDB8F800C05448544E07EE78
:1004000010CADFED547AB8EEC70AB4EEE70AF1EE8F
:1004100010FA4CBF057004700121102002F07CFA24
:100420004FF48050C4F2000002F0C6FB0124002506
:10043000362768468DF800708DF802408DF803402D
:100440008DF8015001F0E4FC4FF4805031464FF636
:10045000FF72C4F20000726035803581758002F051
:1004600095FC3D494FF480502246C4F200000988B3
:1004700002F0E4FC394B4FF480501988C4F20000BC
:1004800002F0E0FC4FF48050C4F20000294602F074
:10049000DBFC4FF480502146C4F2000002F0E2FC85
:1004A0004FF480502146C4F2000002F0E9FC4FF402
:1004B0008050C4F20000294602F0F0FC4FF4805056
:1004C00022462146C4F2000002F002FD21464FF40C
:1004D0008050234CC4F2000002F0ECFC48F21F50A4
:1004E0002768C5F2EB10A0FB07163209B2F1807F36
:1004F00000D3FEE74EF210034FF46D40CEF200033E
:10050000CEF200001749541EF026174A5C6080F8AE
:1005100023609D6007251D6001F54B47116013495D
:1005200020370F6001F0CAF900F04AF846214BF677
:100530008032042000F056FC4FF420710C4800F08B
:1005400007FCFEE70C06002010E001201106002049
:10055000E000002000C0FF4318000020140000202D
:100560008400002014060020F8000020E4DA0120B6
:100570000401002018E00120002070470020A02185
:1005800001F0BAB94FF4A070A02101F0B5B900BFD5
:1005900000207047012008B502F00AFA012802D0B5
:1005A000B7EE000A08BD02F0FDF907EE900ADFED94
:1005B000030AB8EE670A20EE200A08BD0000802F6B
:1005C0002DE9F00340F29804C2F2000443F23338FC
:1005D000C3F6337840F29C00C2F20000C4F80080F9
:1005E00049F69A1440F2C00C40F2A001C3F6996497
:1005F000C2F2000CC2F200014FF00009046048F69C
:10060000890040F2C40740F2C802C4F24839C3F678
:100610000840C2F20007C2F20002CCF80090086065
:100620004FF4004C41F2111140F2880640F290055F
:1006300040F28C03C4F2D44CC3F69151C2F20006CE
:10064000C2F20005C2F20003C7F800C011604CF608
:10065000CD4749F6FE42C3F6CC57C3F25B72376012
:10066000C5F800801A60BDE8F0037047DFED0A7A34
:100670009FED0A7A60EE270A40F2880280EE871A20
:1006800040F28C03C2F20002C2F2000382ED000AC3
:1006900083ED001A704700BFDB0FC94000803B4765
:1006A00040F29003C2F2000383ED000A704700BFDE
:1006B00010B5414C414B2DED048B94ED009AB0EEFA
:1006C000408AB0EE490AD3ED008A03F085F83C4831
:1006D0003C4A3D4B3D49B7EE007AD0ED007A30EE12
:1006E000070AF6EE000A20EE201A77EEE86AB7EE67
:1006F000002A46EE818A364872EE682A78EE828AAF
:10070000D2ED003A82EEA83AD0ED004AB0EE484A67
:1007100003EEA44AD3ED007A44EE437A93ED015AF6
:1007200007EEC35AD3ED025A91ED006A45EE435AE3
:1007300039EE069A93ED036A05EEC36AD3ED046AB7
:1007400046EE436A93ED057A06EEC37ADFED211A91
:1007500021492248B4EEE19A03EE274A43EE057A96
:1007600003EE255A43EE065A03EE266A43EE076A65
:1007700091ED000AF1EE10FAA8BF39EE619AD0EDC2
:10078000000A174928EE000A84ED009A81ED003A2C
:1007900083ED004AC3ED017A83ED025AC3ED035A9B
:1007A00083ED046AC3ED056A82ED007A07EE200A44
:1007B000BDEC048B10BD00BFBC000020A0000020D9
:1007C000C8000020CC000020A40000208C000020E5
:1007D00090000020DB0FC940980000209C00002002
:1007E0009400002010B54DF6F053C0F6000382B01F
:1007F0000446012153F8200002F072F84DF6006221
:10080000C0F6000240F2380032F81410C2F20000C4
:10081000012300918DF8043000228DF8073050F844
:1008200024008DF80620022369468DF8053001F07A
:1008300017FE02B010BD00BF40F238024DF6006353
:10084000C2F20002C0F6000352F8201033F8100084
:100850000883704740F238024DF60063C2F200028E
:10086000C0F6000352F8201033F810004883704798
:1008700070B50646012086B00D46014602F030F8FC
:1008800001214FF4804002F055F806A916480122D4
:10089000002441F8102D50F826008DF80C408DF8FA
:1008A0000F4001F0DDFD012D01D006B070BD2146E5
:1008B000204602F065F904A8082304958DF8144039
:1008C0008DF815308DF8165001F08CFD0F210622A1
:1008D00001A88DF804208DF805108DF806108DF80C
:1008E000075001F095FAE0E748000020F8B5134CF6
:1008F000134D144B144A206829681F68166801F0CC
:1009000015FD88B9114D2068296801F00FFD00B967
:10091000F8BD38463146FFF731FE084829680068BF
:10092000BDE8F84001F022BD38463146FFF72AFE07
:100930002068296801F01AFDE4E700BF5800002094
:100940004C0000202CE001205C0000206C00002006
:100950004FF4406008B5C4F202001021002201F0FB
:1009600027FE44F6FE73023BFDD14FF44060C4F213
:1009700002001021012201F01BFE08BD70B5AE4C33
:100980004FF4961305460E4623604FF4A840C4F278
:1009900000004FF4003101F029FF40B123685A1ED6
:1009A0002260002BF1D1BDE87040FFF7E5BD4FF4A8
:1009B000A840C4F20000012101F0D2FE4FF48050A3
:1009C00020604FF4A8400121C4F20000C0F20301EE
:1009D00001F000FF28B92068411E21600028F0D1F5
:1009E000E1E74FF4A8409421C4F20000002201F096
:1009F000D3FE4FF4805121604FF4A8408221C4F20D
:100A00000000C0F2070101F0E5FE28B923685A1E74
:100A10002260002BF0D1C6E74FF4A840C4F20000DA
:100A2000294601F0D1FE4FF4805222604FF4A840D5
:100A30008021C4F20000C0F2070101F0CBFE28B90A
:100A40002068411E21600028F0D1ACE74FF4A84097
:100A5000C4F20000314601F0B7FE4FF49613236054
:100A60004FF4A8400421C1F20001C4F2000001F0DB
:100A7000BDFE38B923685A1E2260002BF0D1FFF763
:100A80007BFDEDE74FF4A840C4F20000012101F026
:100A900075FE4FF4961020604FF4A840C4F2000099
:100AA0004FF4003101F0A2FE58B12068411E2160D0
:100AB0000028F1D1FFF760FD0546701B18BF01202B
:100AC00070BD4FF4A8400121C4F2000001F048FEBF
:100AD0004FF4805121604FF4A8400121C4F200007E
:100AE000C0F2030101F076FE28B923685A1E226085
:100AF000002BF0D1DEE74FF4A8400022C4F2000042
:100B0000942101F049FE4FF4805222604FF4A84036
:100B10008221C4F20000C0F2070101F05BFE28B997
:100B20002068411E21600028F0D1C3E74FF4A8409F
:100B30002946C4F200004FF4805501F045FE2560BF
:100B400004E023685A1E2260002BB3D04FF4A84063
:100B50000421C4F20000C1F2000101F047FE0028A8
:100B6000EFD04FF4A840C4F20000012101F0F8FDDD
:100B70004FF4805323604FF4A8400121C4F20000D9
:100B8000C0F2030101F026FE28B921684D1E256040
:100B90000029F0D18EE74FF4A840C4F20000942160
:100BA000012201F0F9FD4FF4805020604FF4A84578
:100BB000C4F2000502212846C1F2000101F016FE30
:100BC00028B92368581E2060002BEFD172E7284611
:100BD000002101F0EBFD012128462B8B01F0CEFD19
:100BE0004FF4805121604FF4A8404021C4F200002E
:100BF000C1F2000101F0FAFD28B925686A1E2260E1
:100C0000002DF0D156E74FF4A840C4F2000001F0E7
:100C1000DDFD4FF4A8434FF4805205462260C4F234
:100C20000003188800F400718AB23AB12068411EAE
:100C300021600028F5D13DE7700000204FF4A84066
:100C40000121C4F2000001F0B1FD4FF4A8404FF4BF
:100C50008061C4F20000C1F2000101F0E3FD2CE765
:100C6000193038B5C4B221462020FFF787FE21464F
:100C700005462120FFF782FE401938BD64280DD8B3
:100C800048F21F53C0EB0020C5F2EB1383FB002199
:100C9000C217C2EB6113D8B2FFF7E2BF6420FBE7D3
:100CA000FFF724BEFFF722BE4FF4705008B5C4F220
:100CB0000000022101F05EFF70B10B4B18680228A2
:100CC0000BD0FFF765FC01464FF47050C4F20000F2
:100CD000BDE8084001F032BF08BDFFF759FC0146EE
:100CE000042001F0CFF9ECE76800002038B5154B7F
:100CF000154A1C68012C19D0144C906011612068B1
:100D0000114601F0C5FA2068012101F005FB4FF4FE
:100D10007050C4F20000818B01F480639AB202B17A
:100D200038BD0121BDE8384001F0FABE074D9060A2
:100D300011612868114601F0ABFA2868214601F0DC
:100D4000EBFAE4E7680000206CE001205800002086
:100D5000F8B540F26004C2F200044FF6FF760D468B
:100D6000B14228BF314607462560FFF7BFFF216823
:100D700040F25C024EF22C03B14238BF0E46C2F282
:100D80000002C2F20103AD1B07EB460615601E60B0
:100D90000020F8BD10B5012086B00121C0F220006E
:100DA00001F09EFD01214FF0005001F0B5FD002043
:100DB0000446102303226946C4F2020000938DF812
:100DC00004208DF8074001F04BFB02A92046029455
:100DD0000394059401F026F92046012101F03EF923
:100DE00006B010BD2DE9F047642990B0174600F217
:100DF0003F8148F21F58C1EB0121C5F2EB1888FB77
:100E00000130CA17C2EB60135FFA83F80820012192
:100E100001F066FD4FF44060022500240126C4F273
:100E2000020002A94FF010098DF80D50CDF808907E
:100E30008DF80C608DF80E408DF80F4001F010FB1E
:100E40000720314601F04CFD4FF480604FF41072E2
:100E5000C4F2020002A902928DF80C508DF80D50D8
:100E60008DF80E608DF80F4001F0FAFA4FF48060B3
:100E700006210422C4F2020001F0A0FB4FF48060BE
:100E800004220921C4F2020001F098FB4FF4006033
:100E90004FF4A053C4F2020002A902938DF80C5043
:100EA0008DF80D508DF80E408DF80F4001F0D8FAF6
:100EB000204604210622C4F2020001F07FFBC64D49
:100EC0004FF400600A210622C4F2020001F076FB12
:100ED0002968022900F0EF80204602A9C4F202002E
:100EE000CDF8089001F0BCFA4FF40060C4F20200A3
:100EF0000C21062201F062FB4FF400600226002460
:100F00008022C4F2020002A902928DF80C608DF8D2
:100F10000D608DF80E408DF80F4001F0A1FA4FF4EE
:100F2000006006220721C4F2020001F047FBFFF730
:100F30000FFD01214FF4001001F0EEFC4FF4A8402A
:100F4000C4F2000001F052FB4FF4804A0DF1400959
:100F500048F2A063C0F201034BF6FF724FEA0A4069
:100F600049F8303D0121332340F4A840ADF8162064
:100F70004FF48062ADF81830ADF81A20ADF8144087
:100F8000ADF81CA001F0DEFB4FEA0A40494640F4F0
:100F9000A84001F063FB01213046FFF7EFFCAF21D1
:100FA00006460420FFF7EAFC8C4BAF22812186190C
:100FB00005201A70FFF7E2FC042136180620FFF71F
:100FC000DDFC36184046FFF74BFE2968022900F089
:100FD00095809E210220FFF7D1FC002134180A20C1
:100FE000FFF7CCFC2A68022A04EB000604D00E208E
:100FF0000421FFF7C3FC361800212720FFF7BEFCB1
:101000000F2134181F20FFF7B9FC0A2126181A20D7
:10101000FFF7B4FC0A2134181B20FFF7AFFC0121B5
:1010200026184FF4004001F077FC4FF47050C4F2E2
:10103000000001F0C7FC4FF4705000244FF400731F
:10104000C4F2000008A90A97ADF82240ADF8244088
:10105000ADF82C40ADF82030ADF8263001F0EAFCB8
:101060002868022839D036B1012010B0BDE8F087D9
:101070004FF06408CAE62C68012C63D02A68012A64
:1010800057D0FFF787FE4FF47050C4F20000712173
:10109000012201F05FFD002301A8332201218DF818
:1010A00004208DF805308DF806308DF8071000F01B
:1010B000AFFE0020D9E73046314601F011FC002098
:1010C0000326C4F2020002A9CDF808908DF80C6046
:1010D0008DF80F4001F0C4F90EE701214FF00050E8
:1010E00001F01AFC0CA920460C940D940F9400F00A
:1010F00099FF2046012100F0B1FFB4E7012108204B
:10110000FFF73CFC012180460920FFF737FCC02196
:1011100080440E20FFF732FC464421463618142046
:10112000FFF72CFC214634181520FFF727FC261862
:101130004FE74FF47050C4F20000022101F000FDAF
:10114000002092E72649274F0868214601F0C8FB96
:101150003146386801F0E0F8386800F0A3FF224A11
:101160002248234B1168026819605A604022DA60F5
:101170004FF6FE721A614FF480629A614FF400627A
:10118000DA614FF400521A624FF4807219465A62C3
:1011900038689E604FF440325E619A62DE621E6380
:1011A0005E639E6301F074F838681021224601F0F6
:1011B000F9F838680821224601F0F4F80D4B8DF853
:1011C000056019688DF8066001A88DF804108DF887
:1011D000074000F01DFE51E768000020D400002009
:1011E0005400002058000020D000002050000020B3
:1011F0006CE00120640000201A491B4B0A889B897F
:10120000981A07EE100AB8EEC70AF3EE047AF0EE69
:10121000C00AF4EEE70AF1EE10FA1448C4BF0B80DE
:101220001A4647F23641038001FB02F301EE103A01
:101230009FED0F2AF8EEC11A0E4AC1EE822A1068FD
:101240000D4ABCEEE23A13EE101AFA31A0EB81031C
:10125000934238BF03F5EA33084838BFBC33036014
:10126000704700BF0200002018E0012000000020AD
:1012700000C07F44E4DA012014060020F8000020BA
:101280004EF21803C2F201039FED120A198907EE0C
:10129000901AB8EE677A9FED101A67EE000A9FED7C
:1012A0000F2AC0EE811A40F22002C2F2000240F280
:1012B00014031180C2F200034FF48050C4F2000006
:1012C00072EE612ABCEEE23A13EE102A91B21A8055
:1012D00001F0B8BD0000FA4600C07F4400D00447CA
:1012E0004EF21802C2F20102DFED087A5089C10005
:1012F00000EE101AF8EEC00A40F2160380EEA70ABC
:10130000C2F200031880FFF7B1B900BF00C07F44EC
:101310004EF21802C2F20102DFED070A908907EED1
:10132000900AB8EEE70A40F20A0380EE200AC2F201
:1013300000031880FFF7B4B900C07F444EF21803D1
:10134000C2F201039FED0B7ADA8902EB8200010100
:1013500007EE901AB8EEE70A40F22403C0EE070A3F
:10136000C2F200031A80BCEEE01A11EE102AD0B2CD
:10137000FFF784BC00C07F44704700BFFEE700BF9A
:10138000FEE700BFFEE700BFFEE700BF704700BFFB
:10139000704700BF704700BF2DE9F84FBD4B1C8858
:1013A000601E84B21C80002C40F08F80BA4DBB4F71
:1013B0002A883878DFF820B3DFF818A307EE102A60
:1013C000DFEDB77AB8EEC70AB4EEE70AF1EE10FA2D
:1013D0004CBF002601260421B042198077D002209C
:1013E0008BF80040DFF8E892DFF8D882FFF732FA96
:1013F00020468AF80040FFF72DFA012089F80040C6
:10140000FFF728FA032088F80040FFF723FA3E7020
:101410009BF80030002E63D1012B00F02D81A148F4
:10142000298902888B1A02EE903AB8EEE23AB3EEBE
:10143000044AF0EEC33AF4EEC43AF1EE10FA40F288
:10144000FE809AF80000012800F00281964C69891C
:101450002388CA1A04EE902AB8EEE45AB3EE046A5E
:10146000F0EEC55AF4EEC65AF1EE10FA40F2DD8005
:1014700099F80000012800F0D3808C4AA8891188CF
:10148000431A06EE903AB8EEE67AF3EE047AB0EE3E
:10149000C70AB4EEE70AF1EE10FA40F2BD8098F800
:1014A0000000012800F0EE80814CE9892388CA1AE7
:1014B00000EE902AB8EEE01AB3EE042AF0EEC11A5C
:1014C000F4EEC21AF1EE10FA69D9BDE8F88FDFF830
:1014D0000092DFF8F0813E709BF80030002E9BD028
:1014E000012B00F0BC80734C2A892088111A00EE71
:1014F000901AB8EEE01AB3EE042AF0EEC11AF4EE38
:10150000C21AF1EE10FA72D99AF80000012800F020
:10151000AD80694A69891388C81A04EE900AB8EE4A
:10152000E45AB3EE046AF0EEC55AF4EEC65AF1EE90
:1015300010FA53D999F8000001284AD05F4BA889C6
:101540001988421A06EE902AB8EEE67AF3EE047A8B
:10155000B0EEC70AB4EEE70AF1EE10FA35D998F802
:101560000000012800F0BC80554BEA891988501A08
:1015700000EE900AB8EEE01AB3EE042AF0EEC11ABB
:10158000F4EEC21AF1EE10FA9FD84E4B012203205E
:101590001A70FFF751F9BDE8F84FFFF7CFBE494B7E
:1015A000012103201970FFF747F93B48C1892180C9
:1015B00002EE901ADFED443AB8EEE23A434B83EE86
:1015C000234A83ED004ABDE8F88F414901231846BC
:1015D0000B70FFF731F9FFF79BFEC0E73D4A012191
:1015E00000201170FFF728F9FFF77AFEA2E73A4BC7
:1015F000022001221A70FFF71FF927480189218074
:1016000002EE901ADFED303AB8EEE23A334B83EE59
:10161000234A83ED004A77E72D4A012108461170DD
:10162000FFF70AF9FFF7E8FD39E72A4B002001210F
:101630001970FFF701F918484289228018E7264AF5
:10164000012102201170FFF7F7F8FFF719FEF8E605
:101650000020FFF7F1F86989134B198008E7022091
:10166000FFF7EAF82989134A1180C9E70020FFF73C
:10167000E3F8FFF735FE5DE70220FFF7DDF8FFF73F
:10168000FFFDDEE60320FFF7D7F8E989084A11805D
:101690008EE700BF3000002018E001201106002076
:1016A00000C0FF4320000020220000200000002096
:1016B0002600002008000020160000200A0000205C
:1016C00024000020E8DA012000C07F442800002028
:1016D000100600200CE0012014E001201C00002076
:1016E0000320FFF7A9F8BDE8F84FFFF727BE00BFBA
:1016F0004FF4805070B5C4F20000012101F0F2FBFC
:1017000000B970BD4FF48050584C594D594EC4F239
:101710000000012101F0F2FB2A68236803EB0210AC
:10172000325C02B3544B1888092830D913285BD98E
:10173000312866D963284AD9B0F5967F6ED3B0F5C3
:10174000FA7FC0F08580B0F5487F74D2FEF722FFA3
:101750009FED4A1A60EE011A494BBCEEE12A12EEE7
:10176000100A81B21FE047490A700E2B02D80133DC
:10177000236070BD00212160FEF70CFFF2EE044AE9
:1017800020EE245AFCEEC55AC5ED005A70BDFEF796
:1017900001FFB2EE042A60EE022A3B4BBCEEE23AB5
:1017A00013EE101A89B233F811302A68374803EE65
:1017B000903A2368B8EE634A03EB0211314A715C38
:1017C00080ED004A0120107031480170CDE7FEF72E
:1017D000E1FEF3EE015A20EE256AFCEEC66A16EE33
:1017E000903A99B22B4BDEE7FEF7D4FEF2EE060AF2
:1017F00020EE201A284BFCEEC11A11EE902A91B26D
:10180000D1E7FEF7C7FEB2EE067A60EE077A234B09
:10181000BCEEE70A10EE100A81B2C4E7FEF7BAFE8A
:101820009FED1F4A60EE044A1E4BBCEEE45A15EED3
:10183000101A89B2B7E7FEF7ADFEDFED1B7A20EE96
:10184000270A1A4BFCEEC00A10EE902A91B2AAE7C2
:10185000FEF7A0FEDFED092A20EE223A144BFCEE43
:10186000C33A13EE902A91B29DE700BF28E0012011
:1018700004000020F0D900082200002000002442CB
:101880006CD9000800010020C0D900080C0000201D
:10189000E0DA0120DCD80008D8D9000800D9000817
:1018A000000018422CD80008000038427CD80008FC
:1018B00018D90008704700BF704700BFF0B440F26D
:1018C000F405C2F2000540F2DC0340F2EC0400260D
:1018D000C2F20003C2F2000401274DF6EC202F6093
:1018E000C2F20100002531464FF4A46225601E605B
:1018F000F0BC01F093BE00BF2DE9F04F2DED0E8B33
:1019000083B0E94C0191E949236840F2DC02C2F25C
:10191000000201EB400B40F20C0E40F2FC0040F2E2
:10192000046540F2EC06C2F2000EC2F20000C2F200
:101930000005C2F20006B2F800A09EED00BA90EDDC
:10194000008A95ED009AD6ED008AABB19FEDD88A5A
:101950008BEE08AA1AEE100A01F0E2FCD0A3D3E93C
:10196000002301F091FD002800F03E829FEDD19A06
:1019700000272760B6EE008A0BF1440CCE4CDFF84E
:101980007083CE4DCE4ECF4FDFF86893CDF800C0B8
:10199000DFEDCDDA9FEDC6CADFEDCCCA9FEDCCDA24
:1019A00040F21003C2F2000393ED007A27EE2D0AF5
:1019B00040F2D802C0EE0C0AC2F2000240F2086106
:1019C00040F2D800C2F20001C2F20000D2ED007A6B
:1019D00030EEA71AC1ED000AB4EEEC1AF1EE10FADF
:1019E000C8BF31EE6C1AB0EE410A80ED001A01F06A
:1019F000F3FEF7EE001A40EE0D1A019B61EE8B9A92
:101A0000103BC9EE8CAA9AB201921AEE900A01F02C
:101A100087FCA3A3D3E9002301F036FD002840F0A2
:101A2000C381B6EE002AF4EE42AAF1EE10FAC8BF66
:101A3000F0EE42AA7AEEC92AB3EE003A82EE83AA09
:101A40000099A1F1400B9FEDA3BADFEDA39ADFED62
:101A5000AABADFEDA2AA9FEDA2EA39EE0A9AF7EE42
:101A6000003A38EE098AB4EEE38AF1EE10FA64DB4C
:101A700038EE638AB6EE004A68EE0BEACEEE89EAEB
:101A80003EEEC40A01F060FE04EE900A00F03F0151
:101A900044F62400C0F60000F8EEE46A00EBC10E44
:101AA0003EEEE65ADEED015A9EED006A0AF1FF3382
:101AB00005EE256A04EB830393ED017A37EE060AFF
:101AC0004FF0010C1A1D83ED010A41F2FF10403165
:101AD0000EF50073BCF1000F11D0D3ED010ADEED5D
:101AE000807A45EE207A043292ED001A403171EE90
:101AF000271A8142C2ED001A03F500731DDC93ED35
:101B0000012AD3ED002AD3ED803AD3ED814A45EE88
:101B1000022A45EE243A92ED013AD2ED026A33EE02
:101B2000224A76EEA35A803182ED014AC2ED025A72
:101B30000832814203F58063E1DD0AF1040104EB20
:101B40008103B6EE006A93ED005A36EE487A40F211
:101B5000001035EE070AC2F2000083ED000A04EB24
:101B60008A01D1ED000A02784DF6E02CC2F2010C98
:101B700070EEE87A40F21C03C2F20003012A9CF8DE
:101B8000000093ED001A47EEA98A00F0E8804EF2BB
:101B90001001C2F20101D1ED001AB4EEE11AF1EE2A
:101BA00010FA40F2BD8002EE100A81EE813A4D4AF1
:101BB0004D48F8EE422A92ED004AC2EEAA3AF7EEFC
:101BC000004A74EEC36A71EE845A23EEA66AC0ED31
:101BD000005AD8ED007A2A6896ED001AB7EE000A8E
:101BE000D2ED001A30EE672A67EE812A42EE212AF2
:101BF00040F22803C2F2000393ED003A68EE863A01
:101C000097ED004A62EE834A43EE844AC6ED002A0D
:101C1000F4EEC04AF1EE10FA40F397804DF6E4215D
:101C2000C2F201014DF6E42E0B68A3EC010A4DF25D
:101C3000BF41C9EB0300C0F20101C2F2010E043240
:101C40008842CEF800302A6005DD284B40F214614E
:101C5000C2F2000119604DF2BF40C9EB0202C0F2AE
:101C60000100824204DD40F21463C2F200032B60E3
:101C7000FEF71EFDF7EE006AB4EEE60AF1EE10FA8A
:101C800051DD47F6FF700AF1010A1FFA8AFABAF528
:101C9000807F2BF8040C2BF8020C75D02EE000BFCF
:101CA000F168E388B5F8E43EF40000200401002068
:101CB00000803B47ACC52737ECDA0120F800002054
:101CC000DCDA012034000020DB0FC942DB0FC94001
:101CD0000AD7233C000080426666663F00007F43CF
:101CE00000FEFF460C06002010E00120E4DA01208F
:101CF0002C0000201406002000000000009A0BF1C8
:101D0000040B93457FF4A9AE01994032009200295B
:101D10004DD040F20C03C2F2000393ED00BA3FE64F
:101D20001FED0B6A55E7FFEE005AB4EEE50AF1EE3F
:101D300010FA48BF48F20100A5D420EE0E6ABDEEAD
:101D4000C65A15EE101A88B29DE7BFEE000AF4EEEF
:101D5000404AF1EE10FA58BFB0EE640A5EE7274B36
:101D6000274A07EE100A93ED005AB8EE470A75EEBF
:101D70002B0A4EF210000021C2F201001170C0EDDA
:101D8000000A80EE2A6A24E71E484FF4907200F59C
:101D900080614FF0000A01F09FFB51464FF48062D2
:101DA000194801F03BFCA9E7DFED18AA42E640F232
:101DB000FC00C2F2000080ED008A40F2DC0040F23C
:101DC000046240F2EC01C2F20000C2F20002C2F270
:101DD000000182ED009AC1ED008AC0F800A003B0B6
:101DE000BDEC0E8BBDE8F08FB6EE009AB4EE49AABA
:101DF000F1EE10FAD8BFB0EE4A9AB9E50C06002011
:101E000000010020ECDA01200CDC0120ACC52737F2
:101E1000C37830B47BB902784FF461435109CEF2F4
:101E2000000302F01F022031012000FA02F243F801
:101E3000212030BC70474FF46D44CEF20004457849
:101E4000E16884780378CA43C2F30222C2F1040134
:101E5000C9B205FA01F10F2545FA02F2C9B22240D2
:101E60000A4303F16043110103F56143CAB283F8E9
:101E7000002300784FF46143410900F01F02CEF2C5
:101E80000003012000FA02F243F82120D1E700BF4D
:101E900008B501214FF4807000F068FD4FF48070A8
:101EA0000021BDE8084000F061BD00BF42680B7929
:101EB000F0B422F0407C0E68CD680C694F792CF4A8
:101EC0008072164346EA0323436086682C434FF230
:101ED000FD738D68CCF2FF0344EA050233401343DF
:101EE00043EA47028260097DC26A4B1E22F47001F8
:101EF000DAB241EA0253C362F0BC704770B44FF4E7
:101F00000C5290E84200C4F2010285685468C0682F
:101F100043F2E0033143CFF6FC73294323400143EE
:101F200041EA0300506070BC704700BF836819B974
:101F300023F001018160704743F001028260704725
:101F4000092970B420D901EB41041E3CC66807255D
:101F500005FA04F526EA050503FA04F345EA030445
:101F6000062AC4601FD90C2A02EB820229D9C46A4E
:101F7000413A1F2303FA02F324EA030301FA02F1B0
:101F80001943C16270BC704701EB41040669072523
:101F900005FA04F526EA050503FA04F345EA030405
:101FA000062A0461DFD8531E03EB8302446B1F2310
:101FB00003FA02F324EA030301FA02F1194341632D
:101FC000E0E7233A046B1F2303FA02F324EA030336
:101FD00001FA02F143EA01020263D3E7836843F0A6
:101FE00080418160704700BF836819B923F0020106
:101FF0008160704743F0020282607047836819B9BC
:1020000023F480718160704743F48072826070476E
:10201000836819B923F400718160704743F400723A
:102020008260704770B491E860004FF4E8438C68B8
:10203000CA68C4F2000346EA05010C431E6840F674
:10204000FE7505FA00F5224326EA050502FA00F0BE
:1020500045EA0001196070BC704700BF4FF4E843C7
:10206000C4F200031A6831B9012101FA00F022EA32
:1020700000021A607047012101FA00F01043186055
:10208000704700BF82B04FF4E843C4F2000300225F
:1020900001920193019B083318180190019A116075
:1020A00002B07047016846F21002002321F00101DE
:1020B000C4F202020160036043608360C360036195
:1020C00021239042436165D046F22802C4F2020205
:1020D000904266D046F24001C4F20201884268D0C4
:1020E00046F25803C4F2020398426AD046F27002E4
:1020F000C4F2020290426CD046F28801C4F202019E
:1021000088426FD046F2A003C4F20203984238D04E
:1021100046F2B802C4F20202904275D046F2104173
:10212000C4F20201884277D046F22843C4F2020387
:10213000984278D046F24042C4F2020290427AD0ED
:1021400046F25841C4F2020188427CD046F2704304
:10215000C4F2020398427ED046F28842C4F20202E0
:10216000904200F0818046F2A041C4F20201884210
:1021700000F0848046F2B843C4F2020398423BD098
:1021800070474FF4C041C4F202010023C2F23D0384
:10219000CB6070474FF4C041C4F202013D238B6015
:1021A00070474FF4C040C4F202004FF47462826082
:1021B00070474FF4C041C4F202014FF474138B60B6
:1021C00070474FF4C040C4F202004FF07462826066
:1021D00070474FF4C041C4F202013D23C2F2000334
:1021E000CB6070474FF4C040C4F202004FF47462F9
:1021F000C2F20002C26070474FF4C840C4F202004D
:102200004FF03D52C260BBE74FF4C040C4F2020041
:102210004FF03D52C26070474FF4C841C4F2020112
:102220003D238B6070474FF4C840C4F202004FF466
:102230007462826070474FF4C841C4F202014FF4E7
:1022400074138B6070474FF4C840C4F202004FF023
:102250007462826070474FF4C841C4F202013D23AA
:10226000C2F20003CB6070474FF4C840C4F20200D2
:102270004FF47462C2F20002C26070474FF4C8416A
:10228000C4F202010023C2F23D03CB60704700BFDD
:102290002DE9F00FD1F80CB0D1F800A0D1F81490CE
:1022A000D1F81880D1F81CC00F6A4B6B4E6A8D6A4A
:1022B00002688C6B4BEA0A0A4AEA090949EA080AE9
:1022C00084B04AEA0C0A4AEA070701933E433543C1
:1022D000019E0092354348F23F0C009E0294CFF2DB
:1022E0001C0C06EA0C09029E0B6BCC6A0A6903936C
:1022F000354345EA09054B68896805604569039ED1
:1023000025F0070534432C43446142608360C1607B
:1023100004B0BDE8F00F7047036819B923F001015C
:102320000160704743F001020260704710B44FF43F
:10233000C84246F20F444FF4C043C4F20202C4F252
:102340000204C4F20203A0428CBF104618468A0061
:102350004CBF4268026821F0F02121F08213134241
:102360000CBF0020012010BC704700BF10B44FF418
:10237000C84246F20F444FF4C043C4F20202C4F212
:102380000204C4F20203A0428CBF1046184611F0AA
:10239000005F21F0F02121F0821214BFC260826040
:1023A00010BC70470B060CD54369AAB143F08003FB
:1023B000802943610FD0026801F01E0111430160C2
:1023C0007047802907D0002AF5D1036801F01E016B
:1023D00023EA01020260704723F0800280294261F3
:1023E000F3D17047837970B43BB34FF47053C4F2A8
:1023F000010301681E6802794579CC4326401E60BE
:102400005E6802F1804202F59E3234405C601468DE
:102410002143116002689868D14308409860D868E9
:10242000102D01EA0001D96013D005F1804505F5B2
:102430009E352B681A432A6009E00279016802F18F
:10244000804000F59E331A6822EA01021A6070BCCF
:102450007047996811439960D8680243DA60F6E7DB
:102460002DE9F00F0E6884B00022884613464FF025
:10247000010B00968A4607E0DDF80490A14539D0AB
:102480004B1CAA1C102B54D0009E0BFA03F5591CB0
:1024900005EA060C0BFA01F42640AC45019602F160
:1024A0000205E9D1032606FA02F907689AF80480C2
:1024B0006FEA09094E463E4006600768CDF80C9069
:1024C00008FA02F908F1FF3849EA0709B8F1010FE3
:1024D000C0F8009031D9C368039F9AF807C0DDF8AF
:1024E00004903B40C360C3680CFA02F21A43A14552
:1024F000C260C5D1032304689AF80420AB40DB43D3
:102500001C400460046802FA05FC013A4CEA040429
:10251000012A046033D9C2689AF807401340C360A7
:10252000C26804FA05F31343C3604B1CAA1C102BAA
:10253000AAD104B0BDE8F00F7047D0F80880039E20
:102540009AF806709AF8059006EA0808C0F808801C
:10255000D0F8088009FA02F949EA0808C0F80880AA
:10256000D0F8048028EA0C0CC0F804C0D0F804901D
:1025700007FA03F39FB247EA09034360ABE78668B3
:102580009AF805709AF806201E408660846807FA5B
:1025900005FC4CEA040686604768019E27EA0607A8
:1025A0004760446802FA01F292B222434260B2E705
:1025B0000AB9418370470183704700BFCB080833D5
:1025C00001F0070130B4890050F823500F2404FAB9
:1025D00001F425EA040440F8234050F8234002FAAD
:1025E00001F2144340F8234030BC704708B54FF463
:1025F000A843C4F20003984218D04FF4B041C4F28B
:10260000000188421ED04FF4B842C4F2000290424A
:1026100000D008BD01214FF4000000F099F94FF4FB
:1026200000000021BDE8084000F092B901214FF4FC
:10263000001000F08DF94FF400100021BDE80840B3
:1026400000F086B901214FF4800000F081F94FF4C9
:1026500080000021BDE8084000F07AB9F0B50446DA
:1026600085B06846A6880D4600F0E0F802992A6811
:102670004DF68363C4F21B3326F03F07A3FB01032F
:1026800038049F0C060C1FFA87FC4CEA0603A38053
:10269000208820F0010648F2A0603304C0F2010057
:1026A0001E0C8242268024D85300B1FBF3F6B1B24F
:1026B0000CF1010EA4F820E0032998BF0421A183A6
:1026C0002388AA896E89A88829899BB243F00103CF
:1026D0002380238823F4816323F002031B041B0C53
:1026E0003043034311439BB28AB22380228105B059
:1026F000F0BDE8884BF6FF7398421DD002EB8202D2
:1027000002EB8206B1FBF6F141F4804081B20E0586
:10271000300D08B941F001014FF4967344F6D352DD
:10272000C1F2620203FB07F782FB0736B009421CC5
:1027300041F400412284C2E702EB4203B1FBF3F211
:1027400091B2E4E7038829B923F001010A04130CCC
:102750000380704799B241F001020280704700BFC8
:10276000038829B923F480710A04130C038070478D
:1027700099B241F480720280704700BF038829B982
:1027800023F400710A04130C0380704799B241F4DA
:1027900000720280704700BF1AB901F0FE01018289
:1027A000704741F001010182704700BF038829B9D9
:1027B00023F480610A04130C0380704799B241F43A
:1027C00080620280704700BF01827047008AC0B2F9
:1027D000704700BF828A038B90B240EA03420A40EE
:1027E00022F07F43C91A48424841704782B0002313
:1027F0000A0F0093019301900092009821F07F410D
:1028000050B1019A143201920198036819420CBF29
:102810000020012002B07047019B1833090C01937E
:10282000F2E700BFC9438AB2828270474FF4605317
:10283000C4F2020310B49A6802F00C01042922D0F9
:10284000082926D04FF41052C0F2F40202604FF46F
:102850006053C4F2020321499C68C4F303140C5D65
:1028600022FA04F242609C68C4F382240C5D22FACE
:1028700004F484609B68C3F34233C95C22FA01F21A
:10288000C26010BC70474FF49052C0F27A020260EE
:10289000DDE75C68596814F4800F5C6801F03F0262
:1028A00014BF4FF490534FF41053C4F388114FF4F6
:1028B000605414BFC0F27A03C0F2F403C4F20204FD
:1028C000B3FBF2F303FB01F26168C1F301435C1C4B
:1028D0006100B2FBF1F20260B9E700BF74000020B2
:1028E0004FF46053C4F202031A6B19B922EA0000D4
:1028F0001863704710431863704700BF4FF460536C
:10290000C4F202035A6B19B922EA000058637047F7
:1029100010435863704700BF4FF46053C4F2020382
:102920001A6C19B922EA0000186470471043186441
:10293000704700BF4FF46053C4F202035A6C19B9D8
:1029400022EA00005864704710435864704700BF83
:102950004FF46053C4F202031A6A19B922EA000064
:102960001862704710431862704700BF4FF46053FD
:10297000C4F202035A6A19B922EA00005862704789
:1029800010435862704700BF4FF40063C5F206035E
:102990001A6818B922F004001860704742F0040168
:1029A000196070474FF40063C5F2060398687047DA
:1029B0004FF40063C5F20603596808420CBF0020BB
:1029C0000120704708B54FF44053C4F20103984208
:1029D00018D04FF46051C4F2000188421ED04FF469
:1029E0007052C4F20002904200D008BD01214FF4A1
:1029F0000040FFF7ADFF4FF400400021BDE8084064
:102A0000FFF7A6BF01214FF48050FFF7AFFF4FF44F
:102A100080500021BDE80840FFF7A8BF01214FF416
:102A20008040FFF795FF4FF480400021BDE808404B
:102A3000FFF78EBF838B8A682DE9F00323F47B6454
:102A400024F00F052E04370C022387830384848B24
:102A50009A42A6B25ED04FF46057C4F202078C8847
:102A6000BD68002C0CBF4FF0010C4FF0020C2D0282
:102A70004BD44FF46053C4F202034FF49055D3F893
:102A80008480D3F88470D3F80490CB8809F03F0990
:102A9000C0F27A05B5FBF9F5C8F3881808FB05F50F
:102AA000C7F30277B3F5007FB5FBF7F535D04FEAF2
:102AB0004C1CB5FBFCF707EB87056F00B7FBF2F288
:102AC000551D4CF6CD42AFB2CCF6CC42A2FB0775F9
:102AD000EA085508AF1E02F00102FD2F94BF45EA37
:102AE00002220222B1F800C04F888D8946EA0C010B
:102AF00041F400613943294313438AB2144399B224
:102B000001848483BDE8F0037047BB6823F40005AB
:102B1000BD60AEE78C88CB88E4E72F0ACBE700BF27
:102B2000838B29B923F480610A04130C83837047D3
:102B300099B241F480628283704700BF81817047FF
:102B400083889BB21AB923EA010181807047194337
:102B5000818070470123090903FA01F1838889B252
:102B60009BB21AB923EA010282807047194381801F
:102B7000704700BF038919420CBF00200120704735
:102B80008A084FF46053C4F20103023201F00301DA
:102B900030B4890053F822500F2404FA01F425EAD6
:102BA000040443F8224053F8224000FA01F00443A1
:102BB00043F8224030BC704708B50023C4F201033B
:102BC00098425BD0B0F1804F62D04FF48061C4F284
:102BD0000001884266D04FF40062C4F200029042C5
:102BE0006AD04FF44063C4F2000398426ED04FF4B1
:102BF0008051C4F20001884272D04FF4A052C4F256
:102C00000002904276D04FF48063C4F201039842F0
:102C10007AD04FF48041C4F2010188427ED04FF453
:102C20008842C4F20102904200F084804FF4904345
:102C3000C4F20103984200F089804FF4C051C4F2FD
:102C40000001884200F08E804FF4E052C4F200028E
:102C5000904200F091804FF40053C4F20003984278
:102C600000D008BD01214FF48070FFF771FE4FF4D2
:102C700080700021BDE80840FFF76ABE01200146D0
:102C8000FFF774FE01200021BDE80840FFF76EBE8B
:102C900001200146FFF75CFE01200021BDE808404D
:102CA000FFF756BE02200121FFF752FE022000214D
:102CB000BDE80840FFF74CBE04200121FFF748FEA5
:102CC00004200021BDE80840FFF742BE0820012192
:102CD000FFF73EFE08200021BDE80840FFF738BEA0
:102CE00010200121FFF734FE10200021BDE808402C
:102CF000FFF72EBE20200121FFF72AFE2020002111
:102D0000BDE80840FFF724BE02200121FFF72EFE98
:102D100002200021BDE80840FFF728BE01214FF442
:102D20008030FFF723FE4FF480300021BDE80840DB
:102D3000FFF71CBE01214FF40030FFF717FE4FF4E0
:102D400000300021BDE80840FFF710BE01214FF41C
:102D50008020FFF70BFE4FF480200021BDE80840E3
:102D6000FFF704BE40200121FFF7F2FD40200021C3
:102D7000BDE80840FFF7ECBD80200121FFF7E8FD2A
:102D800080200021BDE80840FFF7E2BD0022038853
:102D9000C4F20102904270B49BB21AD04FF4806228
:102DA000C4F20102904214D0B0F1804F11D04FF420
:102DB0008062C4F2000290420BD04FF40062C4F271
:102DC0000002904205D04FF44062C4F200029042EB
:102DD00005D14FF68F724C881A4042EA04034FF433
:102DE0008052C4F20002904221D04FF4A052C4F2AB
:102DF000000290421BD04FF6FF420E894C680D88AE
:102E00001A400023C4F20103324398420280C46294
:102E1000058509D04FF48062C4F20102904203D0CC
:102E20000123838270BC7047897A0186F8E70380AA
:102E30004A680988C2620185F2E700BF0185828283
:102E4000704700BFC1627047038829B923F00201AF
:102E50000A04130C0380704799B241F00202028009
:102E6000704700BF038829B923F004010A04130C3A
:102E70000380704799B241F004020280704700BF9E
:102E8000038829B923F080010A04130C03807047DA
:102E900099B241F080020280704700BF038823F09E
:102EA000080213041A0C028003889AB211430180AD
:102EB000704700BF038829B923F001010A04130CED
:102EC0000380704799B241F001020280704700BF51
:102ED00083899BB21AB923EA0101818170471943A2
:102EE00081817047038A828911EA030092B203D07C
:102EF00011420CBF00200120704700BFC9438AB2B5
:102F0000028270474FF46D42CEF200024FF46053DC
:102F1000D2F88810C4F2020341F47000C2F88800AD
:102F20001968002241F0010018609A60186843F2A5
:102F3000100120F0847020F48030C2F2004118604B
:102F40005960196882B021F480201860DA6000921C
:102F500001921A6842F480311960184603E0009922
:102F6000B1F5A06F09D0036803F400320192009913
:102F70004B1C0093019A002AF1D04FF46050C4F228
:102F80000200036813F4003222D00121019101985C
:102F9000012821D04FF46052C4F202024FF4814361
:102FA0009168C3F2000321F400009060C2F88430FD
:102FB000136843F08061116010680301FCD54FF481
:102FC0006D43CEF200034FF000629A6002B070478A
:102FD000019201980128DDD14FF46053C4F202033D
:102FE0004FF4E042196CC4F2000241F080501864C2
:102FF000116841F4804010609A689A60996841F4C1
:1030000060409860996845F2084241F4E050C0F28F
:10301000407298605A60196841F080721A601846D0
:1030200001684FF460538A01C4F20203F8D54FF4EB
:103030007052C4F2020240F205601060996821F0FB
:1030400003029A60986840F0020199609A6802F061
:103050000C000828FAD19DE781F0004102E000BF92
:1030600083F0004330B54FEA41044FEA430594EA48
:10307000050F08BF90EA020F1FBF54EA000C55EA83
:10308000020C7FEA645C7FEA655C00F0E2804FEA54
:103090005454D4EB5555B8BF6D420CDD2C4480EA36
:1030A000020281EA030382EA000083EA010180EA66
:1030B000020281EA0303362D88BF30BD11F0004FB4
:1030C0004FEA01314FF4801C4CEA113102D04042EA
:1030D00061EB410113F0004F4FEA03334CEA133325
:1030E00002D0524263EB430394EA050F00F0A7803D
:1030F000A4F10104D5F1200E0DDB02FA0EFC22FA38
:1031000005F2801841F1000103FA0EF2801843FA2B
:1031100005F359410EE0A5F120050EF1200E012A1C
:1031200003FA0EFC28BF4CF0020C43FA05F3C0185A
:1031300051EBE37101F0004507D54FF0000EDCF1D3
:10314000000C7EEB00006EEB0101B1F5801F1BD37C
:10315000B1F5001F0CD349085FEA30004FEA3C0C80
:1031600004F101044FEA445212F5800F80F09A8076
:10317000BCF1004F08BF5FEA500C50F1000041EB7A
:10318000045141EA050130BD5FEA4C0C404141EB7E
:10319000010111F4801FA4F10104E9D191F0000FA5
:1031A00004BF01460020B1FA81F308BF2033A3F128
:1031B0000B03B3F120020CDA0C3208DD02F1140C1F
:1031C000C2F10C0201FA0CF021FA02F10CE002F15A
:1031D0001402D8BFC2F1200C01FA02F120FA0CFC53
:1031E000DCBF41EA0C019040E41AA2BF01EB04519C
:1031F000294330BD6FEA04041F3C1CDA0C340EDC9A
:1032000004F11404C4F1200220FA04F001FA02F3DC
:1032100040EA030021FA04F345EA030130BDC4F19A
:103220000C04C4F1200220FA02F001FA04F340EA8F
:103230000300294630BD21FA04F0294630BD94F040
:10324000000F83F4801306BF81F480110134013D27
:103250004EE77FEA645C18BF7FEA655C29D094EA98
:10326000050F08BF90EA020F05D054EA000C04BF16
:103270001946104630BD91EA030F1EBF0021002001
:1032800030BD5FEA545C05D14000494128BF41F0A0
:10329000004130BD14F580043CBF01F5801130BD04
:1032A00001F0004545F0FE4141F470014FF000008F
:1032B00030BD7FEA645C1ABF194610467FEA655C40
:1032C0001CBF0B46024650EA013406BF52EA0335E2
:1032D00091EA030F41F4002130BD00BF90F0000FD0
:1032E00004BF0021704730B54FF4806404F132040C
:1032F0004FF000054FF0000150E700BF90F0000FC5
:1033000004BF0021704730B54FF4806404F13204EB
:1033100010F0004548BF40424FF000013EE700BFBB
:1033200042004FEAE2014FEA31014FEA02701FBF4B
:1033300012F07F4393F07F4F81F06051704792F01D
:10334000000F14BF93F07F4F704730B54FF4607497
:1033500001F0004521F0004120E700BF50EA0102E2
:1033600008BF704730B54FF000050AE050EA01028F
:1033700008BF704730B511F0004502D5404261EBFF
:1033800041014FF4806404F132045FEA915C3FF440
:10339000DCAE4FF003025FEADC0C18BF03325FEAD9
:1033A000DC0C18BF033202EBDC02C2F1200300FA8E
:1033B00003FC20FA02F001FA03FE40EA0E0021FAB3
:1033C00002F11444C1E600BF4FF0FF3C06E000BF2D
:1033D0004FF0010C02E000BF4FF0010C4DF804CD9E
:1033E0004FEA410C7FEA6C5C4FEA430C18BF7FEA5E
:1033F0006C5C1BD001B050EA410C0CBF52EA430C8C
:1034000091EA030F02BF90EA020F0020704710F10B
:10341000000F91EA030F58BF994208BF90422CBF9A
:10342000D8176FEAE37040F0010070474FEA410C93
:103430007FEA6C5C02D150EA013C07D14FEA430CB1
:103440007FEA6C5CD6D152EA033CD3D05DF8040B22
:10345000704700BF8446104662468C461946634654
:1034600000E000BF01B5FFF7B7FF002848BF10F12B
:10347000000F01BD4DF808EDFFF7F4FF0CBF012070
:1034800000205DF808FB00BF4DF808EDFFF7EAFFEC
:1034900034BF012000205DF808FB00BF4DF808EDA7
:1034A000FFF7E0FF94BF012000205DF808FB00BF9C
:1034B0004DF808EDFFF7CEFF94BF012000205DF826
:1034C00008FB00BF4DF808EDFFF7C4FF34BF012033
:1034D00000205DF808FB00BF0F2A2DE9F00340F241
:1034E000958041EA00039B0740F092800C680460DD
:1034F0004D6845608E68A2F110038660CC681D4659
:103500000F2DC460C3F3001601F1100400F1100385
:1035100022D966B126681E6066685E60A6689E60F5
:10352000E668103DDE60103410330F2D14D9266884
:103530001E6066685E60A6689E60E668DE6026695A
:103540001E6166695E61A6699E61E669203DDE6175
:10355000203420330F2DEAD8A2F1100323F00F04FA
:1035600002F00F031034032B00EB0408214451D95F
:10357000A3F104090B464FEA990901EB890C53F8B2
:10358000046BC1EB0C0544460CF1040C634544F894
:10359000046BC5F3800512D02DB153F8045B63456D
:1035A00044F8045B0BD01E46254656F8047B45F8CC
:1035B000047B5F68331D67602C1D6345F3D109F1FF
:1035C00001039C00091902F003024444DAB12346C6
:1035D0000D7803F8015BA218E4431419934204F038
:1035E000010410D02CB111F8014F03F8014B9342A4
:1035F00009D04D781C4604F8015B8D785D70631C22
:1036000002319342F5D1BDE8F00370470446DDE78F
:103610000446DCE744461A46D8E700BFF0B4840706
:10362000034600F08E80541E002A00F08880E507D3
:10363000CEB211D41A46671E02F8016B1346154626
:1036400092070FD0002C7AD003F8016B9A073C4602
:103650001D4607D0013CEDE7034603F8016B9A07CE
:103660001D46F7D1032C52D9CEB246EA06270F2CBD
:1036700047EA07432DD9A4F1100217460F2FC2F3D2
:1036800000162B606B60AB60EB6005F1100216D981
:103690003EB1103F136053609360D36010320F2F20
:1036A0000DD9203F02F11006136053609360D36080
:1036B000136153619361D36120320F2FF1D8A4F1CC
:1036C000100222F00F0204F00F041032032C1544F4
:1036D0001DD9271F3E462A46032E42F8043BC7F356
:1036E00080070DD927B1043E032E42F8043B07D9C9
:1036F0001746083E47F8043B53603A1D032EF7D89F
:10370000231F23F00302131D04F00304ED18B4B1CA
:103710002B46C9B203F8011B2C19ED436219A342D1
:1037200002F001050BD01DB103F8011BA34206D026
:103730001A4602F8011B5970531CA342F8D1F0BC81
:103740007047054614468DE710B410EE100AC0F31A
:10375000C751A1F17F031E2B83B027DCB3F1FF3FDC
:1037600022DBC40F162B0DDD20F07F4020F4000378
:1037700043F40000963900FA01F004B1404203B06E
:1037800010BC7047134A02EB8401D1ED000A30EE01
:10379000807A8DED017A9DED011A71EE601A11EEBD
:1037A000903A23F0004030B90020E8E7BDEEC00AAF
:1037B00010EE100AE3E723F07F4222F40001C3F386
:1037C000C75341F40000C3F1960220FA02F0002C26
:1037D000D5D0D3E708DE000800B510EE101A40F689
:1037E000D87321F00042C3F649739A4283B018DDC2
:1037F000B2F1FF4F03DB30EE400A03B000BD684674
:1038000000F026F800F0030001289DED000ADDED30
:10381000010A12D002280AD090B9012000F0FAFE65
:10382000EBE7DFED0A0A002000F0F4FEE5E70120F7
:1038300000F0F0FEB1EE400ADFE700F04FF9DCE700
:1038400000F04CF9B1EE400AD7E700BF00000000DD
:1038500070B510EE102A40F6D87322F00044C3F67B
:1038600049739C4286B010EE106A054677DD4CF62F
:10387000E330C4F2160084421CDC4FF47D60002A61
:1038800024F00F04C3F6C970DFED8A7A40F3DB80C1
:10389000844230EE676A71D09FED872A36EE420A85
:1038A000012076EE402A85ED000A32EEC23A85ED1F
:1038B000013A59E04FF47861C4F249318C426FDD2E
:1038C000B4F1FF4F52DAE215863AA4EBC25407EE88
:1038D000104AFDEEC77ADFED796AB8EEE70A77EEB7
:1038E000400A8DED030A20EEA61AFDEEC11AB8EECD
:1038F000E14A31EE442A8DED044A62EE262AF5EEC5
:10390000402AF1EE10FACDED052A40F0AF800323F6
:10391000B5EE404A013BF1EE10FA04A807D130EDB4
:10392000014AB5EE404A013BF1EE10FAF7D0644887
:10393000022100910190294603A800F051F9002EC0
:1039400012DA95ED003AD5ED013AB1EE436AB1EEE7
:10395000637A85ED006A85ED017A404204E000213A
:1039600085ED000A4160002006B070BD30EE405A7F
:10397000002085ED015A85ED005AF5E7DFED517A1B
:103980009FED517A76EE670A012070EEC76A30EE3D
:10399000E61AC5ED006A71EE471AC5ED011AE3E7B4
:1039A00000F07EFE9FED496AF6EE005A40EE065AA0
:1039B000DFED407ABDEEE57ADFED3F0A17EE100A43
:1039C000F8EEC76A1F2806EEE70A66EEA04A14DC86
:1039D000411E3F4B53F8211024F0FF028A420CD0C5
:1039E00030EE643A85ED003A70EE435A002E75EEE3
:1039F000E43AC5ED013AB7DAA7E730EE643AE415E8
:103A000013EE102AC2F3C753E11A0829EADD9FED2D
:103A10002D1A66EE811ADFED2C2A30EE612A30EE87
:103A2000420A70EE614A56EEA24A32EE643A13EE52
:103A3000102AC2F3C753E41A192C2CDC85ED003A86
:103A4000B0EE420AD0E7844270EE270A10D0DFEDD4
:103A50001A3A30EEA34A4FF0FF3070EEC44A85EDBB
:103A6000004A34EEA35A85ED015A7DE703235EE751
:103A7000DFED141A9FED141A30EEA12A4FF0FF303B
:103A800032EE010A72EE402A85ED000A32EE813AEA
:103A900085ED013A68E79FED0F3A66EE833A9FEDB8
:103AA0000E5A32EE630A32EE404A74EE634A56EE24
:103AB000854A95E7800FC93F43443537000080436E
:103AC00090DE00080044353708A3852E84F9223F94
:103AD00010DE000800A3852E32318D2410EE102A4E
:103AE00022F00043B3F1485F2CDAFDEEC07A17EE06
:103AF000903A002B65D020EE004ADFED334A9FED6F
:103B0000335A44EE054ADFED326A54EE846A9FED83
:103B1000317A06EE847A9FED301A17EE041ADFED43
:103B20002F1A41EE041A21EE842A60EE202A54EE68
:103B3000022AF6EE005A54EE252AB7EE003A33EE8A
:103B4000620A704720EE004A9FED1F7ADFED1F6A80
:103B500004EE267A9FED1E1A17EE041ADFED1D1AE9
:103B600041EE041A9FED1C2A11EE842ADFED1B2A78
:103B700042EE042A49F69910C3F69960834222EE78
:103B8000842AD2DD0021C3F648718B4214DC03F194
:103B90007F4203EE902AF7EE005A35EEE33A60EEEC
:103BA000200AB6EE006A54EE063A54EE020A33EEEC
:103BB000E00A33EE400A7047B6EE073AF5EE023AF5
:103BC000EDE7B7EE000A7047F6740F314ED747ADF8
:103BD0007CF29334010DD037610BB63AABAA2A3D83
:103BE0002DE9F04F2DED068BD7B0234C669D029149
:103BF00054F8257003F1FF381D46D31E48BF131D2E
:103C00000646D81020EAE0710391CC43039B02EBF7
:103C1000C40218EB07000092C8EB03015AD40C1839
:103C2000679A631A0134002902EB810E03F0010048
:103C3000C0F2B5829EED005AF8EEC57A4B1C19AA67
:103C400017EE901A42F8041F0421A34242D040B359
:103C5000002BA5BF5EF8010005EE100ADFED097A22
:103C6000F8EEC57A013317EE900A0431A34242F808
:103C7000040F16D12EE000BFA8E100080000803B31
:103C800000008043000000005EF8012005EE102ACD
:103C90000133F8EEC57A021D0431A342C0ED017A6A
:103CA00018D0002BA5BF5EF8010005EE100A5FEDED
:103CB0000B7AF8EEC57A101D04310133C2ED017A9A
:103CC000E2D55FED107A0133021D0431A342C0ED4D
:103CD000017AE6D1002F4FEA870945DB42AB1FEDA1
:103CE000176A41AC284603EB090AB8F1000FC0F28D
:103CF0003E821AAA02EB800212ED010A96ED007ACA
:103D0000B0EE465A07EE005A012305F1FF3C043A93
:103D1000AB420CEA030B3146F0EE450A1DD0BBF175
:103D2000000F09D0D6ED016A32ED011A0223311DD0
:103D3000AB4246EE810A10D0D1ED011A12ED012AF4
:103D400041EE820AD1ED022A12ED023A0233083125
:103D5000083AAB4242EE830AEED110EE902A44F8C4
:103D6000042F01305445C0D17C1E06A800EB84010D
:103D70005FED3E8A1FED3E8A1FED3E9A00EB090B78
:103D80000494B946059101974FEA890456AF3A1950
:103D9000B9F1000F12ED140A52DD60EE283A42A884
:103DA000BDEEE34A0719F8EEC44A05A904EEC80AB5
:103DB00006ABFDEEC05A0A1977ED019A9342C3EDA6
:103DC000005AC2F3800039EEA40A39D0A0B120EE27
:103DD00028AAB0EE407AFDEECA7A07ABB8EEE75AF1
:103DE00037ED016A05EE487A9342FDEEC70A36EEDA
:103DF000050AC3ED000A23D060EE286A37ED011AE8
:103E0000FDEEE61A191DB8EEE12A77ED012A31EE32
:103E1000023A02EE480A63EE283ABDEEC04ABDEE11
:103E2000E30A83ED014AF8EEC04A083304EEC83ACB
:103E30009342FDEEC35A32EEA40AC1ED015ADBD122
:103E4000009800F07BFCB4EE00AAF0EE409A20EE61
:103E50000A0A00F02DFCF2EE007A40EE679A009F0D
:103E6000BDEEE9AA002FB8EECA6A79EEC69A40F311
:103E7000228109F1FF370DF1180E00995EF8273005
:103E8000C1F1080243FA02F11AEE10CA01FA02F077
:103E90001A1A0CEB010E009B06A9C3F1070A0AEEE1
:103EA00010EA41F8272042FA0AFABAF1000F56DD6B
:103EB0001AEE107A781CB9F1000F0AEE100A40F3DE
:103EC0006C8106AB271F53F8041B0DF1180C002260
:103ED0000CEB0400C7F3800721B1C1F5807243F8F1
:103EE000042C0122834225D05FB107990433002AB4
:103EF00000F0D880C1F1FF0743F8047C012283421F
:103F000018D053F8041BC1F1FF0712B9C1F580772F
:103F100011B143F8047C012253F8041BC1F1FF07DF
:103F20001AB9C1F580770029E9D00122834243F80C
:103F3000047CE6D1009B002B0DDD012B00F00281FB
:103F4000022B08D109F1FF3106A850F8217007F0C3
:103F50003F0340F82130BAF1020F00F0B580F5EED2
:103F6000409AF1EE10FA40F0C180019F09F1FF3C48
:103F700067451EDC06AA11190B46CBEB010053F86E
:103F8000042D071F5B45C7F380010FD029B153F8FB
:103F9000040D5B4542EA000208D053F8047D53F853
:103FA000041D3A435B4542EA0102F6D1002A40F083
:103FB000FC8006AF049957F82100002840F0F280F9
:103FC000059B4FF0010A53F8042D0AF1010A002A5B
:103FD000F9D009F10100CA44504557DC0399679AAA
:103FE00008EB000789447B1E42A91AAF02EB890E39
:103FF00007EB83070C190AF1010C5EF8043F09EE88
:10400000903AB8EEE9AAB8F1000F1AEE102A47F874
:10401000042F3DDB41191AAB03EB810212ED013A8B
:10402000D6ED006AF0EE493A46EE833A012305F1F7
:10403000FF39043AAB4209EA03093146F0EE632A3C
:104040001DD0B9F1000F09D096ED014A72ED014A79
:104050000223311DAB4244EE242A10D0D1ED015A87
:1040600052ED010A45EEA02A91ED020A12ED026A14
:1040700002330831083AAB4240EE062AEED1013055
:1040800012EE902A604544F8042FB6D1D1467BE663
:10409000DFEDAE2A013012EE902A604544F8042F7D
:1040A000ABD1F3E700293FF42AAFC1F5807243F8A2
:1040B000042C012223E750D109F1FF3206A850F861
:1040C00022304FEA232AF0E6B7EE000A70EE699A32
:1040D000002A3FF444AF009800F030FB79EEC09A1C
:1040E000F5EE409AF1EE10FA3FF43FAF009D019FCC
:1040F0006842B0EE690A00F021FBDFED910AB4EEF0
:10410000E00AF1EE10FAC0F27682DFED8E6A20EE60
:10411000261A06A8FDEEC11A009BB8EEE12A083364
:1041200002EE600ABDEEC23AFDEEC03A13EE105A3E
:1041300013EE901A40F8291009F10109009340F894
:10414000295048E009F1FF310DF1180E5EF8210009
:1041500000F07F074EF82170FDE6B6EE005AF4EE4F
:10416000C59AF1EE10FA0DDA4FF0000AF7E6DFED2E
:10417000770A10EE902A44F8042F013054457FF45A
:10418000B4ADF1E51AEE107A781CB9F1000F4FF0DA
:10419000020A0AEE100A3FF794AE0022CAE6DFEDEB
:1041A0006B7A4BE54FF0010A13E706A8009D50F823
:1041B0002C30019F083D0095002B40F01A8200EB47
:1041C0008C04E1462A4654F8041D09F1FF39083AE7
:1041D0000029F8D00092B7EE000A009800F0AEFA7D
:1041E000B9F1000FC0F2838009F101084FEA88009D
:1041F00006AB1D1835ED014AF8EEC44A0DF5847E74
:1042000064EE805A0EEB000464ED015ADFED4D0AB6
:10421000021F7445C2F3800160EE207A26D059B1A6
:1042200035ED010AB8EEC06A26EE275A67EEA07A8D
:1042300024ED015A744519D015ED017A55ED021A95
:10424000B8EEC71A67EEA06A61EE272AB8EEE12A37
:10425000231F281F44ED012A22EE263A083C051FA1
:10426000744503ED013A66EEA07AE5D1002409F128
:10427000FF3B002FC0F2B781002CC0F2B481C4EB29
:104280000B050022FB0730490EEB8500DFED2F3ACE
:104290000BD50431043091ED004AD0ED004A0122E3
:1042A000974244EE243A18DA19E0D1ED015AD0EDE4
:1042B000010A531C0E1D051D02329F4245EEA03A15
:1042C00006F1040105F1040009DBA34207DCD6ED89
:1042D000011A95ED012A41EE823AA242E5DD56AB84
:1042E00003EB84020134444542ED283AC1D1669C77
:1042F000032C1CD8DFE814F04701E400E4002C0094
:104300009FED122ABAF1000F00F0D280DDED2E3AB7
:10431000DDED2F4A0299B1EE634AF1EE645AF1EEF7
:10432000420A81ED004AC1ED015AC1ED020A1AEEBE
:10433000103A03F0070057B0BDEC068BBDE8F08FD4
:10434000000080430000803BB0E100080000000056
:10435000B9F1000FD4DD09F101052EA901EB8502A9
:1043600012ED020A12ED016A30EE065A134670EEA3
:10437000457A2FA836EE277AC2F3800523ED017A1D
:10438000834203ED015A2AD06DB113ED021A71EE8A
:10439000051A71EE616A35EE262A23ED012A834261
:1043A00043ED011A1BD0194671ED012A13ED023AB3
:1043B00073EE223A33EE634A72EE844A43ED014AC9
:1043C00051ED025A75EEA30A0B1F35EEE00A834247
:1043D00033EE806A01ED016A43ED010AE3D1B9F1E0
:1043E000010F8DDD12ED025A12ED017A75EE077A9A
:1043F000134635EE671A30A977EE011A501A63EDAD
:10440000011A051F8B4243ED017AC5F380002AD0C3
:1044100068B153ED026A36EEA72A76EEC22A37EE6D
:10442000A23A23ED013A8B4203ED012A1BD01D462F
:1044300075ED013A13ED024A74EE234A74EE645AA4
:1044400073EEA50A43ED010A15ED020A30EE246A67
:104450002B1F30EE465A8B4234EE857A05ED017AF9
:1044600003ED016AE3D1134673ED017A501A1FED93
:10447000491A021F8B42C2F3800531EE272A3FF40E
:1044800041AF35B173ED011A8B4232EE212A3FF470
:1044900039AF53ED016A13ED023A72EE262A083B5A
:1044A0008B4232EE832AF4D1BAF1000F7FF42EAFA3
:1044B00002982E9B2F9A0360426080ED022A36E715
:1044C000B9F1000FC0F2A2802EAD09F1010105EB98
:1044D0008100034633ED010A421B1FED646A111F80
:1044E000AB42C1F3800076EE007A11D028B133EDF3
:1044F000015AAB4277EE857A0AD013ED017A53ED7B
:10450000021A37EE871A083BAB4271EE217AF4D1DA
:10451000BAF1000F6AD0B1EE672A029DDDED2E6A76
:10452000B9F1000F85ED002A76EEE73A22DD2EACD8
:1045300004EB89092FABC4EB0902D3ED002A111F4C
:104540004B451C46C1F3800073EEA23A12D030B145
:1045500030AB93ED003A4B4573EE833A0AD093EDBE
:10456000014AD3ED025A73EE844A08334B4574EE88
:10457000A53AF4D1BAF1000F01D0F1EE633A029DF1
:10458000C5ED013AD3E6B9F1000F3CDB2EAA09F1E3
:10459000010102EB8100034673ED010A851A1FED4C
:1045A000950A291F9342C1F3800030EE205A11D0A2
:1045B00028B133ED016A934235EE065A0AD053ED25
:1045C000017A13ED027A35EE271A083B934231EE59
:1045D000075AF4D1BAF1000F01D0B1EE455A029A50
:1045E00082ED005AA3E65FEDA73A78E6B0EE672ABF
:1045F00093E7E146EFE5BDEEC07A06AA17EE104A52
:1046000042F82940E7E51FEDAF5AE3E75FEDB17AE5
:104610007EE700BF10EE102A22F00043B3F1485F9E
:1046200004DAFDEEC07A17EE901A21B320EE001ADC
:104630009FED157ADFED156A11EE267ADFED141A7B
:1046400047EE011A9FED132A11EE812ADFED122A9F
:1046500021EE006A42EE012A70B126EE223AF6EE11
:10466000003A10EEA33A9FED0D4A53EE010A46EED2
:10467000040A30EE600A7047DFED080A51EE220AA4
:1046800000EE860A704700BF342FD732D3C92E2FD1
:104690001BEF3836010D50398988083CABAA2A3EF9
:1046A00010EE102A22F0004300EE103A704700BFCF
:1046B00010EE103A23F00041CA0D7F3A162A1BDC97
:1046C000002A10EE100A1DDB4FF6FF71C0F27F01C9
:1046D00041FA02F119420ED0DFED177A30EE270AC7
:1046E000B5EEC00AF1EE10FA03DD002B17DB20EA6D
:1046F000010300EE103A7047B1F1FF4FFBD330EEEB
:10470000000A7047DFED0C0A30EE201AB5EEC01A31
:10471000F1EE10FAEDDD002B07DB0023E9E74FF4A3
:10472000000343FA02F28018E1E70022CBF6807220
:10473000002918BF1346DCE7CAF2497108B510EE2C
:10474000103A33F000422DED028B11D0B2F1FF4F41
:1047500011D2B2F5000F11D3D10D0A18FE2A2FDCA9
:10476000002A1BDD23F0FF4040EAC25200EE102A6F
:10477000BDEC028B08BD30EE000AF9E743F6B0430A
:10478000CFF6FF73DFED1C7A984220EE270A22DB7A
:1047900010EE103AC3F3C7511939DEE712F1160FC4
:1047A0001EDA4CF2503398420ADC9FED148AF0EE88
:1047B000400AB0EE480A00F027F820EE080AD7E7D2
:1047C0009FED0F8AF0EE400AB0EE480A00F01CF8A8
:1047D00020EE080ACCE7DFED090A20EE200AC7E741
:1047E000193223F0FF4040EAC2519FED060A07EE5E
:1047F000101A27EE000ABBE70000004C6042A20D31
:10480000CAF249710000003310EE101A10EE900A3F
:1048100021F0004300F0004242EA030100EE101ACA
:10482000704700BF00000000000000000000000012
:104830000000000000000000000000000000000078
:104840000000000000000000000000000000000068
:104850000000000000000000000000000000000058
:104860000000000000000000000000000000000048
:104870000000000000000000000000000000000038
:104880000000000000000000000000000000000028
:104890000000000000000000000000000000000018
:1048A0000000000000000000000000000000000008
:1048B00000000000000000000000000000000000F8
:1048C00000000000000000000000000000000000E8
:1048D00000000000000000000000000000000000D8
:1048E00000000000000000000000000000000000C8
:1048F00000000000000000000000000000000000B8
:1049000000000000000000000000000000000000A7
:104910000000000000000000000000000000000097
:104920000000000000000000000000000000000087
:104930000000000000000000000000000000000077
:104940000000000000000000000000000000000067
:104950000000000000000000E18CAB2FE18CAB2FC9
:10496000869E722F146E123088C1B62FD6CE6D304F
:10497000576D0D30159EBD3059515A306463153155
:10498000CE98A530C62F68314B85F5303679B131D8
:1049900006BB31315D2B05325C8E7B31F20E443229
:1049A000CA5DAE31EC9E8D32323DED313CEEC83207
:1049B000C7B31E320E240C33042851320F6E40331D
:1049C00087F987326935823374A8AE3287DFAD3319
:1049D00028E4DD328C58E5335D8C0B33638F15345E
:1049E00060EF2D333A0B413482FF563318CB7634C7
:1049F000A7DD8333F55C9C34D49EA033AA84C434F1
:104A0000FE5FC233A91CF53456CEE9331FC81735F3
:104A100063D40B343ABD3A35A2602634635564350D
:104A20001BFF443495CA8A35DE2D683453D0A73530
:104A30005B3B883424DFC935F1379F3424ADF13531
:104A4000745EB9345E021036B607D73456E32A36A0
:104A50000994F834D6F54936E2350F3550C36D3632
:104A6000CE7F2435A1718B36A2643C3535FEA2364B
:104A7000F2255735F5E2BD364E0A75353E84DC36F3
:104A8000C62E8B35F04FFF3682B89D35085F133741
:104A9000FC4DB235C5A82937DE1DC93586CC423755
:104AA000155AE235C5175F37E337FE35C8DE7E3766
:104AB0000E780E36643E9137AA5F1F36582AA53706
:104AC000F3F23136B868BB372F5446363E33D4370D
:104AD000B4A75C3636C8EF37131475365B35073824
:104AE00016E187367F311838A06E963651FF2A3886
:104AF0008B49A63683C83F38FD89B736C3B95638C7
:104B00008149CA36F4027038FBA2DE36A9EB85383B
:104B1000C7B2F436D53695385F4B06374100A63814
:104B2000233713372567B8382E2D2137CB8CCC3857
:104B3000D93E3037A994E238447E403773A4FA381E
:104B400084FE513720720A3993D3643758BF18391D
:104B5000501279377B5028394B6887378A3D39396D
:104B60009B129337DB9F4B3908949F375C925F39D8
:104B7000FCF8AC3778317539744EBB37A54D8639A2
:104B8000F9A1CA37C4F792398F01DB37DEA7A03904
:104B9000E87BEC379A6FAF393120FF379E61BF3920
:104BA000237F09388491D03943131438EA13E33949
:104BB00001551F388CFEF6392C4D2B381834063A27
:104BC000F104383867B4113AC4854538C40C1E3A2C
:104BD00074D953385B4A2B3A240A6338FE7A393A3F
:104BE0004822733821AD483A58168238EDEF583ACA
:104BF000441A8B3836536A3AA8A294388AE77C3A2A
:104C000071B59E381B5F883ABB58A938A9F4923A0F
:104C1000CB92B438D43D9E3A1C6AC0387344AA3A49
:104C20004FE5CC38C912B73A380BDA3881B3C43AF9
:104C3000D6E2E738B031D33A5A73F638DE98E23A22
:104C400016E2023922F5F23A62EE0A397729023B7E
:104C5000756213399E5F0B3B40421C39C223153BE2
:104C6000CC912539E27C1F3B3A552F3933722A3BD0
:104C7000C19039393F0B363BB4484439CB4F423BA6
:104C800072814F39E2474F3B703F5B39D9FB5C3B48
:104C9000468767394F746B3B845D743928BA7A3B19
:104CA00078E380394B6B853B26E487398DE98D3B72
:104CB00039338F39C0DC963B2AD39639F349A03B70
:104CC00078C69E395B36AA3BAC0FA73956A7B43BD2
:104CD00054B1AF396BA2BF3B0CAEB8394C2DCB3BB6
:104CE0007308C239D24DD73B2BC3CB39040AE43BFE
:104CF000E7E0D5391368F13B5164E039596EFF3B69
:104D00002350EB39AE11073C18A7F639E6C60E3C26
:104D1000FB35013A46DA163CBB50073A524F1F3C6E
:104D200032A50D3AA029283CC334143AF56C313C25
:104D3000D4001B3A021D3B3CC80A223AAD3D453C1B
:104D40000654293AE7D24F3CEFDD303ACCE05A3CEA
:104D5000EAA9383A646B663C58B9403A0077723C2D
:104D6000990D493AD3077F3C0CA8513A2C11863C47
:104D70000B8A5A3A7CE58C3CF1B4633A2203943CAA
:104D8000112A6D3A726C9B3CBFEA763ACC23A33C65
:104D9000227C803A8D2BAB3CF9A9853A2A86B33C1C
:104DA00078FF8A3A2136BC3C4C7D903AF83DC53CB0
:104DB0000824963A37A0CE3C3DF49B3A7D5FD83C20
:104DC0008EEEA13A657EE23C7C13A83A9DFFEC3C56
:104DD0009A63AE3AD5E5F73C68DFB43AE699013D0F
:104DE0006687BB3A2176073D175CC23A02890D3DC2
:104DF000E05DC93AF2D3133D438DD03A5B581A3D7A
:104E00009EEAD73AB017213D5976DF3A6213283D22
:104E1000C930E73AEA4C2F3D431AEF3ABDC5363D5B
:104E20001F33F73A547F3E3D987BFF3A317B463D36
:104E3000F5F9033BD1BA4E3D254E083BB23F573DF5
:104E400074BA0C3B5B0B603DF13E113B491F693D61
:104E5000ACDB153B057D723DA9901A3B0E267C3DCF
:104E6000EE5D1F3BF70D833D7043243B1230883DC0
:104E70003141293B1C7A8D3D1E572E3BD4EC923D8F
:104E80002885333BFE88983D34CB383B584F9E3DB8
:104E900024293E3BA040A43DD19E433B975DAA3DC3
:104EA000102C493BF8A6B03DB7D04E3B7E1DB73D18
:104EB000858C543BE2C1BD3D435F5A3BDC94C43D0D
:104EC000A648603B2197CB3D6B48663B66C9D23D07
:104ED000385E6C3B592CDA3DB589723BA2C0E13D8E
:104EE00086CA783BFD86E93D3E207F3BFD7FF13D54
:104EF00037C5823B51ACF93D5304863B4606013E23
:104F0000314D893BB650053E8F9F8C3BADB5093E78
:104F100028FB8F3B89350E3EB05F933B87D0123E16
:104F2000DCCC963BEA86173E56429A3B03591C3E20
:104F3000CDBF9D3B0047213EE544A13B2451263E89
:104F40003FD1A43BAC772B3E7C64A83BD4BA303E27
:104F500036FEAB3BC51A363E049EAF3BB5973B3E93
:104F60007B43B33BD131413E27EEB63B43E9463E5E
:104F7000959DBA3B2CBE4C3E4E51BE3BBBB0523E03
:104F8000D308C23BFEC0583EA6C3C53B1CEF5E3EE5
:104F90004281C93B2A3B653E2241CD3B2EA56B3E5B
:104FA000BA02D13B442D723E7BC5D43B72D3783ECE
:104FB000D488D83BB8977F3E314CDC3B0B3D833ED9
:104FC000F60EE03B4ABD863E8AD0E33B8A4C8A3EE1
:104FD0004C90E73BCDEA8D3E9B4DEB3B0498913ED8
:104FE000D107EF3B2254953E48BEF23B1A1F993E33
:104FF0005070F63BDAF89C3E411DFA3B50E1A03E72
:1050000069C4FD3B63D8A43E89B2003CF8DDA83EEC
:10501000467F023CF2F1AC3E0E48043C3214B13EF5
:10502000850C063CB55D25BF4DCC073C853E23BFB6
:105030000987093C671821BF563C0B3C77EB1EBF24
:10504000D8EB0C3CC7B71CBF2B950E3C737D1ABF29
:10505000F037103C933C18BFC3D3113C44F515BF47
:105060004368133CA3A713BF0DF5143CCE5311BFE7
:10507000BE79163CE7F90EBFF4F5173C109A0CBF49
:105080004969193C6A340ABF5DD31A3C1DC907BF80
:10509000CC331C3C4E5805BF338A1D3C25E202BF71
:1050A00030D61E3CCD6600BF6117203CDECCFBBE77
:1050B000654D213C74C2F6BEDB77223CB4AEF1BE36
:1050C0006396233C0092ECBEA1A8243CBA6CE7BED8
:1050D00030AE253C4A3FE2BEB3A6263C130ADDBEF5
:1050E000D591273C86CDD7BE406F283C0D8AD2BED5
:1050F000933E293C1740CDBE6DFF293C1DF0C7BE35
:105100008FB12A3C8E9AC2BE8D542B3CEC3FBDBE63
:1051100026E82B3CA9E0B7BE046C2C3C497DB2BE0E
:10512000D2DF2C3C4B16ADBE5A432D3C31ACA7BE52
:1051300031962D3C7F3FA2BE2AD82D3CBFD09CBECD
:10514000FD082E3C766097BE5C282E3C31EF91BE68
:1051500014362E3C807D8CBEE2312E3CF20B87BE95
:10516000921B2E3C159B81BEE2F22D3CFB5678BE75
:10517000B4B72D3C857B6DBEBB692D3CE9A462BEF6
:10518000E2082D3C5AD457BEF4942C3C080B4DBE7B
:10519000DB0D2C3C2E4A42BE61732B3CF39237BE92
:1051A00071C52A3C9FE62CBEEA032A3C614622BE1A
:1051B000C32E293C74B317BEDA45283C142F0DBE0C
:1051C0003049273C82BA02BEAF38263CF5ADF0BD6F
:1051D0005714253C640BDCBD28DC233CE28FC7BDA3
:1051E0001690223CDF3DB3BD3530213CD8179FBD22
:1051F0008FBC1F3C46208BBD30351E3C41B36EBD7D
:105200002D9A1C3CB48C47BDA0EB1A3CCDD120BDDF
:10521000A429193CC50EF5BC5D54173C9864A9BC83
:10522000EF6B153C435D3DBC8770133CF3B227BB6D
:105230005462113C31EBCE3B8B410F3C21B7763CA5
:10524000640E0D3CC4E2C13C1EC90A3CA9A3033D47
:10525000FB71083C29C0253D4109063C7742473D8A
:105260003E8F033C4726683D4104013CAC33843DFE
:105270003BD1FC3BBF00943D6379F73B5578A33DA0
:10528000AE01F23B7198B23DE46AEC3B1F5FC13D59
:10529000D7B5E63B78CACF3D58E3E03BB6D8DD3D15
:1052A0004BF4DA3BF387EB3D96E9D43B91D6F83DDE
:1052B00029C4CE3B69E1023EFF84C83B9325093EE9
:1052C000192DC23BFD360F3E7DBDBB3BE414153EA0
:1052D0003E37B53BA0BE1A3E729BAE3B7C33203EB0
:1052E0003BEBA73BD872253EBF27A13B117C2A3E52
:1052F00028529A3BA24E2F3EAF6B933B05EA333EBA
:105300008B758C3BAC4D383EFD70853B34793C3E13
:1053100093BE7C3B306C403E81836E3B3C26443EDA
:105320006533603B0EA7473EE5D0513B4FEE4A3E0A
:10533000BA5E433BC9FB4D3E9FDF343B47CF503EF7
:105340006356263BA068533ECDC5173BB9C7553EB3
:10535000B430093B7FEC573EE333F53AE4D6593E8F
:10536000C908D83AF4865B3EE7E5BA3ABFFC5C3E32
:1053700014D19D3A65385E3E1AD0803A013A5F3EBC
:10538000C2D1473AD601603E88420E3A1A90603E3A
:1053900092FCA93916E5603E5086E0382A01613E4C
:1053A000A1D1E3B8ABE4603EF12DA9B91390603E02
:1053B000CE390CBADB03603E155743BA88405F3ED6
:1053C00032E379BAA1465E3E51E997BACE165D3E08
:1053D000068DB2BAB6B15B3EF8D6CCBA08185A3EC2
:1053E000A7C1E6BA874A583EB82300BBF549563EE6
:1053F00072B10CBB3017543E4D0719BB15B3513E6B
:10540000A02225BB881E4F3ED00031BB815A4C3EA6
:10541000479F3CBB0768493E82FB47BB1948463E55
:10542000041353BBCFFB423E6DE35DBB3E843F3E66
:105430005A6A68BB93E23B3E86A572BB0318383EAE
:10544000B8927CBBB625343EE01783BBF30C303EEC
:1054500046BD87BB0BCF2B3E8C388CBB476D273EA0
:10546000B98890BB03E9223EDEAC94BB9D431E3E4F
:1054700019A498BB787E193E8E6D9CBB0C9B143E84
:105480006D08A0BBC99A0F3EF873A3BB297F0A3EE3
:1054900071AFA6BBAF49053E30BAA9BBB7F7FF3D18
:1054A0009293ACBB802EF53D033BAFBBD23AEA3DB5
:1054B000FEAFB1BBD01FDF3D06F2B3BBB0E0D33DC2
:1054C000AB00B6BBA680C83D91DBB7BBED02BD3DCE
:1054D0005E82B9BBC86AB13DCFF4BABB7ABBA53D09
:1054E000AB32BCBB50F8993DC93BBDBB93248E3D4C
:1054F0000610BEBB9343823D55AFBEBB3CB16C3D75
:10550000B519BFBB06CE543D314FBFBB1FE43C3D78
:10551000E64FBFBB23FA243DF91BBFBBA4160D3DCC
:10552000A0B3BEBB5C80EA3C2317BEBB98FABA3C72
:10553000D546BDBBE0A88B3C1243BCBB3830393CE0
:105540004E0CBBBB1F54B73B02A3B9BBA1B893B869
:10555000BB07B8BB9E56BABB103BB6BBD24838BCE3
:10556000A63DB4BBD63389BC3110B2BBE3B7B5BCE2
:1055700073B3AFBBBBA4E1BC3728ADBB667706BD38
:105580005B6FAABB50C51BBDC589A7BB89B630BD23
:105590006778A4BB974545BD463CA1BB1F6D59BD6F
:1055A0006AD69DBBEC276DBDEC479ABB753880BDB4
:1055B000F39196BB94A189BDA9B592BBEFCC92BDE6
:1055C0004AB48EBB34B89BBD188F8ABB2561A4BD7D
:1055D000644786BB9BC5ACBD85DE81BB83E3B4BDA0
:1055E000BAAB7ABBE2B8BCBDAE5D71BBCF43C4BD44
:1055F000CAD567BB7D82CBBD04175EBB3573D2BDF8
:10560000672454BB5314D9BD04014ABB6464DFBD95
:10561000FFAF3FBBE261E5BD883435BB8A0BEBBD14
:10562000E0912ABB1A60F0BD48CB1FBB6C5EF5BD94
:1056300013E414BB8D05FABD9BDF09BB8C54FEBD82
:105640008882FDBA492501BEF618E7BA80F302BE8A
:105650004D89D0BA929404BE82DAB9BA440806BE23
:105660007C13A3BA6C4E07BE403B8CBAE46608BEFE
:1056700083B16ABA905109BEF1E53CBA770E0ABE11
:10568000C8210FBA989D0ABEECE5C2B90FFF0ABE49
:105690007F9D4FB9F7320BBECC9BD1B785390BBE7E
:1056A000273B1A39F5120BBED4BBA63998BF0ABEE8
:1056B000DEA5FF39C63F0ABE69E02B3AE39309BE77
:1056C0000679573A67BC08BED047813ADAB907BEB7
:1056D0009D8B963AC08C06BE8A81AB3ABC3505BE1E
:1056E0004623C03A76B503BEA66AD43AA10C02BEE0
:1056F0009F51E83A013C00BE38D2FB3AB288FCBD6B
:105700005173073B194DF8BD9EC4103BF2C6F3BD63
:1057100042DA193B20F8EEBD8AB1223B95E2E9BDA1
:10572000E0472B3B5B88E4BDC09A333B8BEBDEBD8F
:10573000BBA73B3B4C0ED9BD7C6C433BDFF2D2BDDB
:10574000C8E64A3BAD9BCCBD7514523B080BC6BDA9
:105750007BF3583B6D43BFBDE4815F3B5E47B8BD03
:10576000DBBD653B6F19B1BDA2A56B3B41BCA9BDBB
:10577000A137713B8532A2BD4972763BF37E9ABD5B
:105780003D547B3B51A492BD2EDC7F3B6FA58ABD6F
:105790007D04823B278582BDC3EC833BB78C74BDFF
:1057A00077A6853BE6D763BD3131873BC2F152BD59
:1057B000998C883B2FE041BD63B8893B23A930BD5C
:1057C0005BB48A3B96521FBD56808B3B8CE20DBD6D
:1057D0003D1C8C3B07BEF8BC06888C3B099CD5BCA5
:1057E000B7C38C3B1C6BB2BC6BCF8C3B40378FBCC0
:1057F00045AB8C3BDB1858BC81578C3B1DED11BC75
:1058000061D48B3BD90598BB3F228B3BB339CEB9D2
:1058100080418A3BC8BB7A3B9932893B3F48033C75
:1058200012F6873B4B43473C7B8C863BC344853C0D
:105830007BF6843B6082A63CC034833B904FC73CE0
:105840000E48813B95A1E73C64627E3BF1B6033D87
:1058500011E2793B1255133DF510753B20A6223D10
:10586000FFF06F3B31A5313D3A846A3B754D403DB9
:10587000C9CC643B429A4E3DE6CC5E3B0F875C3D13
:10588000DD86583B7E0F6A3D1FFD513B4F2F773D14
:1058900029324B3B39F1813D8A28443B7E12883DB9
:1058A000F5E23C3B96F98D3D1964353BB5A4933D3B
:1058B000CFAE2D3B2C12993DF3C5253B5C409E3D60
:1058C00070AC1D3BBF2DA33D4F65153BEAD8A73DEE
:1058D00099F30C3B8740AC3D695A043B5A63B03D99
:1058E000C439F73A4140B43D7A7CE53A33D6B73D06
:1058F0006483D33A4124BB3D1755C13A9529BE3D37
:1059000014F8AE3A76E5C03D13739C3A4157C33D57
:10591000C8CC893A747EC53DAE176E3AA45AC73DCD
:10592000186E483A80EBC83D49AA223AD530CA3DA4
:1059300087B3F939892ACB3D0F14AE399DD8CB3DB9
:105940003E2245392E3BCC3D722C3A387252CC3D2A
:10595000C1CFCEB8BF1ECC3DA6817CB97EA0CB3DC9
:10596000C546C8B937D8CA3DD9D508BA8CC6C93DCD
:10597000E82A2DBA356CC83DD21551BA0ACAC63DBF
:10598000098A74BAF7E0C43D97BD8BBA00B2C23D34
:1059900085EE9CBA453EC03DE8D1ADBAFE86BD3D20
:1059A000E161BEBA768DBA3DB298CEBA1453B73D16
:1059B000D370DEBA51D9B33DD3E4EDBABD21B03DC9
:1059C0006EEFFCBA002EAC3DC1C505BBD1FFA73DB3
:1059D00014DA0CBB0099A33D4FB213BB6EFB9E3D86
:1059E000204C1ABB0D299A3D5AA520BBE223953DB8
:1059F000DFBB26BB03EE8F3DB08D2CBB96898A3D65
:105A0000EC1832BBCFF8843DBF5B37BBE17B7E3DFA
:105A100085543CBB99B6723D9F0141BB80A6663D53
:105A20009A6145BB66505A3D227349BB34B94D3D1E
:105A3000F8344DBBE4E5403DFAA550BB84DB333D73
:105A400031C553BB319F263DB69156BB1436193D27
:105A5000C90A59BB68A50B3DC92F5BBBD8E4FB3C09
:105A600036005DBBD444E03CA97B5EBB5B75C43CA7
:105A7000E7A15FBB1E81A83CC37260BBCA728C3CAD
:105A80003EEE60BB04AA603C711461BBE464283C38
:105A90009EE560BBFA56E03B1E6260BBD64B603BA6
:105AA0006E8A5FBB76654137285F5EBBC09D5DBB7C
:105AB00002E15CBB613FDDBBD5105BBBE86325BC8D
:105AC0009BEF58BBCE9F5BBC637E56BBB19F88BC2F
:105AD00061BE53BB7C17A3BCE1B050BB9D2DBDBCC8
